:020000040800F2
:10000000A806002001010008D11500089514000879
:10001000CD150008790100086919000800000000EA
:10002000000000000000000000000000D9150008DA
:100030008901000800000000D5150008DD15000842
:100040001B0100081B0100081B0100081B01000820
:100050001B0100081B0100081B0100081B01000810
:100060001B0100081B0100081B0100081B01000800
:100070001B0100081B0100081B0100087D0100088E
:100080001B0100081B0100081B0100081B010008E0
:100090001B0100081B0100081B0100081B010008D0
:1000A0001B0100081B0100081B0100081B010008C0
:1000B0001B0100081B0100081B0100081B010008B0
:1000C0001B0100081B0100081B0100081B010008A0
:1000D0001B010008D91800081B0100081B010008BB
:1000E0001B0100081B0100081B010008DFF80CD0F1
:1000F00000F02AF8004800478D190008A8060020E3
:100100000648804706480047FEE7FEE7FEE7FEE7B1
:10011000FEE7FEE7FEE7FEE7FEE7FEE7E115000883
:10012000ED000008D2B201E000F8012B491EFBD21D
:1001300070470022F6E710B513460A4604461946F2
:10014000FFF7F0FF204610BD1CB509480090094894
:1001500001900546009C06E0E06840F0010394E849
:10016000070098471034AC42F6D3FFF7C3FF0000F6
:10017000341B0008541B0008FEE7000040F25C003E
:10018000C2F2000000F02EB870470000EFF31080BC
:1001900072B600BFFEE70000014690F82100022879
:1001A00016D10868D1E90FC3026822F00E0202607E
:1001B000026822F001020260012000FA03F2CCF88A
:1001C000042081F821000020002281F820207047BF
:1001D000042088630120002281F82020704700005D
:1001E000806B704710B5D0E90FCE0168DCF80030A5
:1001F0000A6823FA0EF35C072AD512F0040427D00C
:100200000A68920603D40A6822F004020A602F22C8
:10021000C4F20202914240F20402C4F202025BDD27
:100220003023C4F20203994272D04423C4F2020381
:10023000994273D05823C4F20203994240F07A8065
:100240004FF480231360C16A002940F098806FE06A
:100250009C0727D512F0020424D00A68920606D41F
:100260000A6822F00A020A60012280F821202F2267
:10027000C4F20202914240F20402C4F202023BDDE7
:100280003023C4F20203994260D04423C4F2020333
:1002900099425FD05823C4F20203994260D14FF4CF
:1002A000003365E01B0743D512F0080208BF10BDFC
:1002B0000A6822F00E020A60012101FA0EF2CCF85F
:1002C0000420816380F82110016B0022002980F84E
:1002D000202054D12CE000BF0823C4F2020399422D
:1002E00022D01C23C4F20203994223D1402313607D
:1002F000C16A002943D11BE00823C4F202039942DA
:100300002CD01C23C4F20203994229D120232FE0D0
:100310004FF480631360C16A89BB09E04FF48043E6
:100320001360C16A59BB03E004231360C16A31BB87
:1003300010BD00BF02F168044FF08063A14208BF06
:100340004FF480031360C16AC9B9F1E74FF4007339
:100350000EE000BF4FF400530AE000BF022307E0A5
:1003600002F168044FF00073A14208BF4FF400137C
:100370001360816A0022002980F82020D8D0BDE8CF
:1003800010400847014600284FF0010008BF7047A1
:100390002DE9F043D1F800C04FF6F873CBF6FD73AA
:1003A0004CF6CD426344CCF6CC42A3FB02236FF063
:1003B000030202EA93020023C4F2020301F10C08D3
:1003C000C1E90F320222D1E9019E98E8F00181F8DB
:1003D0002120DCF8002043F6F0739A4342EA090238
:1003E00042EA0E0222432A4332433A4342EA0802D7
:1003F000CCF8002000228A6381F8210081F82020B7
:100400000020BDE8F043704790F820C0BCF1010F18
:1004100004BF02207047F0B54FF0010E80F820E0D5
:1004200090F821C0BCF1010F26D14FF0020C80F8EA
:1004300021C04FF0000CC0F838C0D0E900C4C56A34
:10044000C66BDCF80070102C27F00107CCF80070A8
:10045000006C0EFA00F070600846CCF8043004BF5F
:1004600010460A46CCF80800CCF80C20DCF8000056
:1004700045B140F00E000DE0002180F82010022070
:10048000F0BD00BF20F00400CCF80000DCF8000054
:1004900040F00A00CCF80000DCF8000040F0010059
:1004A000CCF800000020F0BD2DE9F04F82B00E68BE
:1004B000002E00F0FD8041F20042C4F2010204234C
:1004C00040F2004E904208BF03234FF6FF7CC4F277
:1004D000010E009300240123C1F2100C4FF0000A1A
:1004E0004FF000094BE000BF41F20002C4F20102EC
:1004F000009F904208BF022704F00C030F229A408D
:100500002BEA020207FA03F34FEA9A051A4346F868
:1005100025204E6840F20C45F202DEF8082054BF58
:1005200022EA080242EA0802C4F20105CEF80820D5
:100530002A68B30254BF22EA080242EA08022A608B
:10054000B303DEF8042054BF22EA080242EA08029C
:10055000F303CEF80420DEF800204FF0010354BF6F
:1005600022EA080242EA0802CEF800200E680AF1E8
:10057000010A36FA0AF204F1040400F0998003FA41
:100580000AFB16EA0B08F1D04E68664512DC122E03
:1005900056D8DFE806F0350B4D495555555555559C
:1005A0005555555555555545510000BFD1F80C903E
:1005B00046E000BF4FF6FF72C1F2210296420FDC07
:1005C0000022C1F2110296421AD00022C1F2120298
:1005D000964215D00022C1F22102964210D02FE09F
:1005E0000022C1F2220296420AD00022C1F2310258
:1005F000964205D00022C1F23202964220D100BFBD
:100600008A684AB1012A14BFC0F814B0C0F810B00B
:100610004FF0080914E000BF4FF0040910E000BFDC
:10062000CA6802F104090BE04FF0000908E000BFBE
:10063000CA6802F1080903E0CA6802F10C0900BFA8
:1006400002462646B8F5807F24BF0432203E176854
:100650000F25B54027EA050509FA06F6354315606A
:10066000CA79D2067FF582AF41F21803C4F20203C1
:100670001A68AEF57E7642F001021A601A6802F03E
:1006800001020192019A2AF0030256F802B040F6E4
:100690000002C4F20102904208D040F60042C4F2C7
:1006A000010290427FF420AF012725E7002723E7CE
:1006B00002B0BDE8F08F0000002A08BF0904016104
:1006C0007047000040F2A420C2F2000000687047AA
:1006D00040F2040040F2A421C2F20000C2F2000184
:1006E00000780A68104408607047000080B542F244
:1006F0000000C4F20200016841F010010160032013
:1007000000F08CF80F2000F005F800F027F800202A
:1007100080BD000070B540F20406C2F2000640F24F
:100720000C013278C2F200014FF47A730968B3FB0E
:10073000F2F20446B1FBF2F1084600F085FB0F2C03
:100740004FF0010508D838B94FF0FF30214600229C
:10075000002500F037F87460284670BD82B041F281
:100760001800C4F202000168042241F00101016096
:10077000016801F0010101910199416841F0805146
:100780004160406800F08050009000980420C4F25E
:100790000100016862F31A61016002B07047000055
:1007A000002848BF704700F01F01012202FA01F142
:1007B0001C2202EAD0004EF20012CEF2000281505A
:1007C0007047000010B54EF60C5CCEF2000CDCF861
:1007D0000030C3F3022E8EF00704042C28BF04243B
:1007E000BEF103034FF0FF3E0EFA04F438BF0023BE
:1007F000A14399400EFA03F39A43114300F00F020C
:1008000000F160430901043A03F56443624400289F
:1008100048BF02F10C03197010BD00004EF60C51D8
:10082000CEF200010A684FF6FF031A4060F30A2275
:1008300042F0806040F0FD7008607047002804BFFF
:10084000012070472DE9F04381B042F20008C4F264
:1008500002080446D8F800000D4600F00700814267
:100860000CD9D8F8000020F007002843C8F8000091
:10087000D8F8000000F00700A8426CD1206841F2CF
:1008800004098107C4F2020917D5410705D5D9F833
:10089000001041F4E061C9F80010010705D5D9F84E
:1008A000001041F46051C9F80010D9F80010A26896
:1008B00021F0F0011143C9F80010C00742D1D8F867
:1008C000000000F0070085420CD2D8F8000020F0AC
:1008D00007002843C8F80000D8F8000000F007001F
:1008E000A84238D12068410707D5D9F80010E2683E
:1008F00021F4E0611143C9F80010000708D5D9F8C8
:100900000000216920F4605040EAC100C9F80000ED
:10091000D9F8002002F00C00082841F20020C0F2B3
:100920007A004DD141F62233C2F38341C0F6000371
:10093000595CD20338D440F60010C0F23D00484361
:100940003EE000BF606859F8041C022808D0012866
:1009500026D1890306D4012001B0BDE8F08300BF91
:100960008901F8D5D9F8001021F003010843C9F82E
:100970000000FFF7A7FE064641F28837D9F80000CD
:10098000616800F00C00B0EB810F98D0FFF79AFE81
:10099000801BB842F2D9032001B0BDE8F08300BF4C
:1009A0008907D8D5DEE700BFD9F8002041F620330B
:1009B000C2F34042C0F600039A5C4843B0FBF2F039
:1009C000D9F8001041F60832C1F30311C0F6000255
:1009D000515C40F20C0220FA01F140F20800C2F230
:1009E00000000068C2F200021160FFF793FE0020D1
:1009F00001B0BDE8F083000040F20C0041F20401B8
:100A0000C2F20000C4F202010068096841F618321F
:100A1000C1F30221C0F60002515CC84070470000DB
:100A200040F20C0041F20401C2F20000C4F20201E3
:100A30000068096841F61832C1F3C221C0F600020D
:100A4000515CC84070470000002804BF0120704777
:100A50002DE9F04182B00446007841F20006C0075B
:100A6000C4F202060CD0706800F00C00042840F0BC
:100A700081803068800303D56068002800F04681DB
:100A8000207880071BD5706810F00C0F09D07068B3
:100A900000F00C00082840F087807068C00300F167
:100AA00083803068800703D52069012840F02E81BB
:100AB0003068616920F0F80040EAC10030602078B9
:100AC000000713D4207840072CD4E569002D00F0EE
:100AD0001881706800F00C00082840F0A780012DF4
:100AE00040F00481012002B0BDE8F081A069002837
:100AF00000F084800020C4F242200121C0F880145C
:100B0000FFF7E0FD054600BF706A800700F1B28084
:100B1000FFF7D8FD401B0228F6D9032002B0BDE83C
:100B2000F08100BFF0695FEAC00808D4F06940F0C6
:100B30008050F061F06900F080500090009847F21A
:100B40000007C4F200073868C00549D4386840F48B
:100B500080703860FFF7B6FD054600BF3868C005F5
:100B60003ED4FFF7AFFD401B6428F7D9032002B045
:100B7000BDE8F081706800F00C00082803D17068AF
:100B8000C0033FF576AF61683068002900F00C8142
:100B9000B1F5A02F00F00081B1F5803F40F01A813F
:100BA00040F480301CE100BF2069002840F20000C2
:100BB000C4F2422000F0888001210160FFF782FD2D
:100BC000054600BF306880073FF572AFFFF77AFD3A
:100BD000401B0228F6D9032002B0BDE8F08100BF17
:100BE000E168306A002900F09D80052900F09280BC
:100BF000012940F0AF8040F00100B1E00020C4F2D4
:100C000042200021C0F88014FFF75CFD054600BFBC
:100C1000706A80077FF556AFFFF754FD401B02282E
:100C2000F6D9032002B0BDE8F08100BF0027C4F26E
:100C3000422700203866FFF745FD022D05460DD1FD
:100C40003068800140F1DE80FFF73CFD401B022848
:100C50004FF00300F4D902B0BDE8F08130688001A4
:100C60004FD5FFF72FFD401B02284FF00300F5D9A9
:100C7000F1E700BF40F20C00C2F20000006844F649
:100C8000D351C1F26201A0FB0101480A019000BFEB
:100C900000BF0198411E002801913FF413AF00BF2F
:100CA0000198411E002801913FF40CAF00BF01984C
:100CB000411E002801913FF405AF00BF0198411E7D
:100CC00000280191E4D1FDE600210160FFF7FAFC64
:100CD000054600BF306880077FF5F1AEFFF7F2FCF4
:100CE000401B02284FF00300F4D9B4E77068216A72
:100CF00000F480328A4209D1616A00F4701088429F
:100D000004D1002002B0BDE8F08100BF012002B094
:100D1000BDE8F08140F004003062306A40F001002C
:100D20001EE000BF20F001003062306A20F00400B5
:100D30003062FFF7C7FC054641F28837306A80070A
:100D400020D5FFF7BFFC401BB8424FF00300F5D998
:100D500081E700BF20F001003062306A20F004001B
:100D60003062FFF7AFFC054641F28837306A8007F2
:100D700008D4FFF7A7FC401BB842F7D9032002B004
:100D8000BDE8F081B8F1000F3FF59FAEF06920F0AB
:100D90008050F06199E600BF40F4802030603068F8
:100DA00040F480301CE000BF20F4803030603068B8
:100DB00020F480203060FFF785FC05463068800312
:100DC0007FF55EAEFFF77EFC401B64284FF003000A
:100DD000F4D940E720F480303060306820F480207F
:100DE0003060FFF76FFC0546306880033FF548AE82
:100DF000FFF768FC401B6428F6D9032002B0BDE869
:100E0000F08100BF206AB0F5803F05D17168A2680B
:100E100021F40031114371607168626A21F4741128
:100E200011430843706001203866FFF74BFC04460D
:100E3000306880013FF565AFFFF744FC001B0228D6
:100E40004FF00300F4D906E7411E0020B0EB116F0C
:100E50001CBF012070474EF21002CEF2000251601A
:100E60004EF62351CEF20001F0230B700721906063
:100E7000116070477047000010B50446206850E8C4
:100E8000030F216820F4907041E80302BAB3206890
:100E900050E8030F216820F4907041E8030272B318
:100EA000206850E8030F216820F4907041E80302A5
:100EB0002AB3206850E8030F216820F4907041E8BD
:100EC0000302002ADAD11AE0206850E8050F2168F1
:100ED00020F0010041E80502DAB1206850E8050F72
:100EE000216820F0010041E8050292B1206850E835
:100EF000050F216820F0010041E805024AB1206891
:100F000050E8050F216820F0010041E80502002AA1
:100F1000DAD1206B012824D1206850E8030F216822
:100F200020F0100041E80302DAB1206850E8030F16
:100F3000216820F0100041E8030292B1206850E8D7
:100F4000030F216820F0100041E803024AB1206835
:100F500050E8030F216820F0100041E80302002A46
:100F6000DAD120684069400636D500BF206850E8D5
:100F7000050F216820F0400041E80502DAB1206841
:100F800050E8050F216820F0400041E8050292B1C9
:100F9000206850E8050F216820F0400041E8050274
:100FA0004AB1206850E8050F216820F0400041E870
:100FB0000502002ADAD1E06B70B100214163FFF72E
:100FC000EBF848B1E06BFFF70BF9202804D11020B3
:100FD0006064032010BD00BF00202021E08584F85C
:100FE0004210206310BD000070470000002804BFBD
:100FF0000120704710B5044690F8410028B9002040
:1010000084F84000204600F063F8242084F8410072
:101010002068D4E90212C36823F40053C360036953
:1010200023F440531A430261D4E904231143C268F4
:10103000194341F20C639A431143C1604169A269AB
:1010400021F44071114343F60002C4F201029042C0
:10105000416103D0FFF7D0FC02E000BFFFF7E0FCE6
:10106000D4E90023192148439900B0FBF1F048F27C
:101070001F5CC5F2EB1CA0FB0C314FF69C734909B9
:10108000C0F6FF7301FB0300322303EB0010A0FB4B
:101090000C03F02000EA531000EB0110C3F34311DE
:1010A000084490601069202120F49040106150693C
:1010B00020F02A005061D06840F40050D060002039
:1010C000606484F8411084F84210606310BD000031
:1010D0002DE9F04186B040F600050446C4F2010552
:1010E000006805F54051002788420597CDE9037750
:1010F000029703D006B0BDE8F08100BF41F21806A8
:10110000C4F2020630680DF1080840F480403060F7
:101110003068414600F4804001900198306840F00A
:1011200004003060306800F00400019001984FF432
:101130000070029002200390032005902846FFF7DC
:10114000B3F94FF48060CDE9020728464146049781
:10115000FFF7AAF940F25C05A6F57C60C2F2000533
:1011600080212022C5E900072846C5E90271C5E9AA
:101170000477C5E90627FFF705F9002818BFFFF730
:1011800005F8E5636C6206B0BDE8F08190F8423086
:10119000202B0BD194460A4600294FF0010118BFBD
:1011A000BCF1000F06D10846704700BF0221084677
:1011B000704700BF70B582B00025222105638262AE
:1011C000A0F82CC0456480F842100168C36B41F25E
:1011D000617441F6C10E41F2E556C0F60004C0F656
:1011E000000EC0F60006C3E90A4EC3E90C650431DF
:1011F000044618466346FFF707F901952168204623
:101200000A680192496801910199216931B300BFCF
:10121000016851E8031F026841F4807142E803133A
:10122000E3B1016851E8031F026841F4807142E8AC
:1012300003139BB1016851E8031F026841F48071F8
:1012400042E8031353B1016851E8031F026841F4F7
:10125000807142E80313002BDAD100BF016851E826
:10126000051F026841F0010142E80513BBB30168A4
:1012700051E8051F026841F0010142E8051373B30C
:10128000016851E8051F026841F0010142E80513B9
:101290002BB3016851E8051F026841F0010142E8E3
:1012A0000513002BDAD11AE0016851E8051F026826
:1012B00041F0400142E80513DBB1016851E8051F28
:1012C000026841F0400142E8051393B1016851E81A
:1012D000051F026841F0400142E805134BB1016867
:1012E00051E8051F026841F0400142E80513002B58
:1012F000DAD1002002B070BD7047000070470000D6
:101300002DE9F04381B0044690F84100202809D12E
:1013100000294FF0010018BF002A07D101B0BDE835
:10132000F08300BF022001B0BDE8F08300206064BC
:1013300021201D460E4684F841001746FFF7C2F9EA
:10134000A784E784A1688146B1F5805F02D1206956
:1013500000285DD037460020E28C2168002A5DD04D
:101360006A1C24D0002D4AD0804600BF08680006C1
:1013700008D4FFF7A7F9A0EB0900A8427AD82168A2
:10138000C868F3E717B117F8010B04E038F8020B4F
:1013900000276FF35F204860E08C0138E084E08C28
:1013A0000028E3D13AE000BF0A68120609D40A68AF
:1013B000120606D40A6812065CBF0A685FEA026277
:1013C000F2D51FB117F8012B05E000BF30F8022B52
:1013D00000276FF35F224A60E28C013AE284E28CDC
:1013E000002AE4D11AE000BF30F8022B00276FF387
:1013F0005F224A60E28C013AE284E28C72B10A68B0
:10140000120635D5002FEFD017F8012BF1E700BFFA
:1014100000273046E28C2168002AA1D108684006E6
:101420001ED42DB3681C14D1086840062AD408685D
:10143000400627D40868400624D4086840064FF0C8
:101440000000F1D50DE000BF2068C16800684006CB
:1014500018D4FFF737F9A0EB0900A842F4D909E046
:101460000020202184F8411001B0BDE8F08300BFC6
:10147000FFF728F90320202184F8411001B0BDE8CE
:10148000F08300BF0020202184F8411001B0BDE8A6
:10149000F083000040F60000C4F201004FF48051D8
:1014A0000022FFF709F900BFFEE7000080B582B017
:1014B00041F21400C4F202000168002241F001016F
:1014C00001600068002100F00100019001980F20E8
:1014D000FFF778F90F2002B0BDE88040FFF760B950
:1014E0002DE9F04786B04FF0000A41F21800CDE92F
:1014F00004AACDE902AAC4F20200016840F6000481
:1015000041F0040101600168C4F2010401F004012A
:10151000019101990168012241F008010160006810
:101520004FF4006100F008000190019820464FF050
:101530000108FFF7C1F820464FF480510122FFF760
:10154000BBF820464FF400410122FFF7B5F804F53F
:1015500080652846082101224FF00809FFF7ACF802
:101560004FF4184002A902AE81E801050227204687
:1015700031460597FEF798FF28463146CDE9029897
:10158000CDE904A7FEF790FF06B0BDE8F0870000A4
:1015900080B540F2140043F60001C2F20000C4F22C
:1015A000010100234FF00C0C4FF4E13280E80E00F3
:1015B000C0E90333C0E905C3C361FFF717FD002885
:1015C00008BF80BDBDE88040FEF7E0BDFEE700003B
:1015D000FEE700007047000070470000FFF778B892
:1015E00070470000406A01684A6990F84130212B39
:1015F0002DD112F080022AD00021C184016851E867
:10160000031F026821F0C00142E80313DBB1016847
:1016100051E8031F026821F0C00142E8031393B1AF
:10162000016851E8031F026821F0C00142E803137A
:101630004BB1016851E8031F026821F0C00142E884
:101640000313002BDAD1202180F841100168496989
:1016500090F84220222A40F07D8011F0400179D09C
:101660000021C185016851E8031F026821F49071CF
:1016700042E80313BBB3016851E8031F026821F479
:10168000907142E8031373B3016851E8031F0268C5
:1016900021F4907142E803132BB3016851E8031F52
:1016A000026821F4907142E80313002BDAD11AE0AA
:1016B000016851E8051F026821F0010142E80513A5
:1016C000DBB1016851E8051F026821F0010142E821
:1016D000051393B1016851E8051F026821F001016B
:1016E00042E805134BB1016851E8051F026821F07B
:1016F000010142E80513002BDAD1016B012924D145
:10170000016851E8031F026821F0100142E8031349
:10171000DBB1016851E8031F026821F0100142E8C3
:10172000031393B1016851E8031F026821F010010F
:1017300042E803134BB1016851E8031F026821F02E
:10174000100142E80313002BDAD1202180F8421067
:1017500000210163416C41F010014164FFF744BC7A
:101760000168406A0968890600F19F800021C185EF
:10177000016851E8031F026821F4807142E80313F5
:10178000E3B1016851E8031F026821F4807142E867
:1017900003139BB1016851E8031F026821F48071B3
:1017A00042E8031353B1016851E8031F026821F4B2
:1017B000807142E80313002BDAD100BF016851E8C1
:1017C000051F026821F0010142E80513BBB301685F
:1017D00051E8051F026821F0010142E8051373B3C7
:1017E000016851E8051F026821F0010142E8051374
:1017F0002BB3016851E8051F026821F0010142E89E
:101800000513002BDAD11AE0016851E8051F0268C0
:1018100021F0400142E80513DBB1016851E8051FE2
:10182000026821F0400142E8051393B1016851E8D4
:10183000051F026821F0400142E805134BB1016821
:1018400051E8051F026821F0400142E80513002B12
:10185000DAD1202180F84210016B012925D100BF87
:10186000016851E8031F026821F0100142E80313E8
:10187000DBB1016851E8031F026821F0100142E862
:10188000031393B1016851E8031F026821F01001AE
:1018900042E803134BB1016851E8031F026821F0CD
:1018A000100142E80313002BDAD100214163016BE0
:1018B000012918BFFFF720BD818DFFF7DBBA0000BB
:1018C000406A01214163016B012918BFFFF716BD72
:1018D000818D4908FFF7CEBA40F21400C2F2000031
:1018E00000680168C90658BF704770B582B0002112
:1018F00001910168019140680190019840F25C00FB
:10190000C2F2000000684068C0F5807085B285B101
:1019100040F2A000C2F2000040F2A014461EC2F243
:10192000000400BF16F8011F204600F0B5F8013D85
:10193000F8D140F21404C2F200042046FFF79CFAEA
:1019400040F2A001C2F2000120464FF48072FFF77E
:101950001DFC40F21000C2F200000121017002B033
:10196000BDE8704070470000FEE7000080B582B01F
:10197000019040F21400C2F2000001A901224FF6CA
:10198000FF73FFF7BDFC019802B080BD90B0FEF779
:10199000ADFE06AC201D2421FEF7CBFB02200690F5
:1019A00001200A9010200B90002520460D95FFF78E
:1019B0004BF828B1EFF3108072B600BFFEE700BF0E
:1019C0000F20CDE9010501A80021CDE903550595BA
:1019D000FEF734FF20B1EFF3108072B6FEE700BFD0
:1019E000FFF77EFDFFF762FDFFF7D2FD40F2100723
:1019F000C2F2000740F2A001381DC2F200014FF40C
:101A00008072FFF7C3FB78680022C1684FF00008BE
:101A100041F01001C16025200021FEF7D3FE2520F2
:101A2000FEF7BEFE40F2A014C2F20004204600F011
:101A30002DF806AD0AA602E0304600F053F83878DB
:101A40000128FCD187F800802046294600F00AF8DA
:101A50000128F1D19DF8180000F03EF8F4E700BF2E
:101A60000D000000B0F80021B0F802319A4204BF26
:101A700000207047B0F80221825C0A70B0F80211B1
:101A80000131C9B2A0F80211012070470021A0F86D
:101A90000011A0F802117047B0F80021B0F802312F
:101AA0000132D2B29A4204BF00207047B0F8003130
:101AB000C154A0F800210120704702E008C8121F9D
:101AC00008C1002AFAD170477047002001E001C127
:101AD000121F002AFBD170470149FFF747BF0000E2
:101AE0000000002010B5044601E0FFF73FFF14F8A6
:101AF000010B04490028F8D1BDE810400A20FFF787
:101B000035BF0000000000200000000000000000C1
:101B10000102030406070809000000000102030493
:101B2000010202030405060708090A0B0C0D0E0F3B
:101B300010100000581B00080000002010000000DA
:101B4000BA1A0008681B0008100000209806000060
:101B5000CA1A000800000000000000000100000098
:081B60001000000000127A00E1
:04000005080000ED02
:00000001FF
